{
  "contractName": "deposit",
  "abi": [
    {
      "inputs": [
        {
          "internalType": "address",
          "name": "_erc20",
          "type": "address"
        }
      ],
      "stateMutability": "nonpayable",
      "type": "constructor"
    },
    {
      "anonymous": false,
      "inputs": [
        {
          "indexed": true,
          "internalType": "address",
          "name": "previousOwner",
          "type": "address"
        },
        {
          "indexed": true,
          "internalType": "address",
          "name": "newOwner",
          "type": "address"
        }
      ],
      "name": "OwnershipTransferred",
      "type": "event"
    },
    {
      "anonymous": false,
      "inputs": [
        {
          "indexed": true,
          "internalType": "address",
          "name": "depositor",
          "type": "address"
        },
        {
          "indexed": true,
          "internalType": "uint256",
          "name": "_amount",
          "type": "uint256"
        }
      ],
      "name": "depositBYuser",
      "type": "event"
    },
    {
      "inputs": [],
      "name": "ERC20",
      "outputs": [
        {
          "internalType": "address",
          "name": "",
          "type": "address"
        }
      ],
      "stateMutability": "view",
      "type": "function",
      "constant": true
    },
    {
      "inputs": [
        {
          "internalType": "address",
          "name": "",
          "type": "address"
        }
      ],
      "name": "depositAmount",
      "outputs": [
        {
          "internalType": "uint256",
          "name": "balance",
          "type": "uint256"
        },
        {
          "internalType": "uint256",
          "name": "level",
          "type": "uint256"
        }
      ],
      "stateMutability": "view",
      "type": "function",
      "constant": true
    },
    {
      "inputs": [],
      "name": "owner",
      "outputs": [
        {
          "internalType": "address",
          "name": "",
          "type": "address"
        }
      ],
      "stateMutability": "view",
      "type": "function",
      "constant": true
    },
    {
      "inputs": [],
      "name": "renounceOwnership",
      "outputs": [],
      "stateMutability": "nonpayable",
      "type": "function"
    },
    {
      "inputs": [
        {
          "internalType": "uint256",
          "name": "",
          "type": "uint256"
        }
      ],
      "name": "slab",
      "outputs": [
        {
          "internalType": "uint256",
          "name": "",
          "type": "uint256"
        }
      ],
      "stateMutability": "view",
      "type": "function",
      "constant": true
    },
    {
      "inputs": [
        {
          "internalType": "uint256",
          "name": "",
          "type": "uint256"
        }
      ],
      "name": "slabTotal",
      "outputs": [
        {
          "internalType": "uint256",
          "name": "",
          "type": "uint256"
        }
      ],
      "stateMutability": "view",
      "type": "function",
      "constant": true
    },
    {
      "inputs": [
        {
          "internalType": "address",
          "name": "newOwner",
          "type": "address"
        }
      ],
      "name": "transferOwnership",
      "outputs": [],
      "stateMutability": "nonpayable",
      "type": "function"
    },
    {
      "inputs": [
        {
          "internalType": "uint256[5]",
          "name": "_amount",
          "type": "uint256[5]"
        }
      ],
      "name": "setLevel",
      "outputs": [],
      "stateMutability": "nonpayable",
      "type": "function"
    },
    {
      "inputs": [
        {
          "internalType": "uint256",
          "name": "_amount",
          "type": "uint256"
        }
      ],
      "name": "depositByUser",
      "outputs": [
        {
          "internalType": "bool",
          "name": "",
          "type": "bool"
        }
      ],
      "stateMutability": "nonpayable",
      "type": "function"
    },
    {
      "inputs": [
        {
          "internalType": "address",
          "name": "_acc",
          "type": "address"
        }
      ],
      "name": "userDepositLevel",
      "outputs": [
        {
          "internalType": "uint256",
          "name": "Level",
          "type": "uint256"
        }
      ],
      "stateMutability": "view",
      "type": "function",
      "constant": true
    }
  ],
  "bytecode": "0x60806040523480156200001157600080fd5b506040516200123a3803806200123a833981810160405281019062000037919062000182565b620000576200004b6200009f60201b60201c565b620000a760201b60201c565b80600c60006101000a81548173ffffffffffffffffffffffffffffffffffffffff021916908373ffffffffffffffffffffffffffffffffffffffff1602179055505062000207565b600033905090565b60008060009054906101000a900473ffffffffffffffffffffffffffffffffffffffff169050816000806101000a81548173ffffffffffffffffffffffffffffffffffffffff021916908373ffffffffffffffffffffffffffffffffffffffff1602179055508173ffffffffffffffffffffffffffffffffffffffff168173ffffffffffffffffffffffffffffffffffffffff167f8be0079c531659141344cd1fd0a4f28419497f9722a3daafe3b4186f6b6457e060405160405180910390a35050565b6000815190506200017c81620001ed565b92915050565b6000602082840312156200019b576200019a620001e8565b5b6000620001ab848285016200016b565b91505092915050565b6000620001c182620001c8565b9050919050565b600073ffffffffffffffffffffffffffffffffffffffff82169050919050565b600080fd5b620001f881620001b4565b81146200020457600080fd5b50565b61102380620002176000396000f3fe608060405234801561001057600080fd5b506004361061009e5760003560e01c80638da5cb5b116100665780638da5cb5b1461016e578063b98557a71461018c578063bd497a9c146101bc578063cc4aa204146101d8578063f2fde38b146101f65761009e565b806350f62da7146100a35780636a5193db146100d45780636e08b87e14610104578063715018a6146101345780637f9d29351461013e575b600080fd5b6100bd60048036038101906100b89190610b84565b610212565b6040516100cb929190610d73565b60405180910390f35b6100ee60048036038101906100e99190610b84565b610236565b6040516100fb9190610d58565b60405180910390f35b61011e60048036038101906101199190610c0b565b610282565b60405161012b9190610d58565b60405180910390f35b61013c61029d565b005b61015860048036038101906101539190610c0b565b610325565b6040516101659190610cfd565b60405180910390f35b61017661074c565b6040516101839190610cab565b60405180910390f35b6101a660048036038101906101a19190610c0b565b610775565b6040516101b39190610d58565b60405180910390f35b6101d660048036038101906101d19190610bb1565b610790565b005b6101e0610939565b6040516101ed9190610cab565b60405180910390f35b610210600480360381019061020b9190610b84565b61095f565b005b600b6020528060005260406000206000915090508060000154908060010154905082565b6000600b60008373ffffffffffffffffffffffffffffffffffffffff1673ffffffffffffffffffffffffffffffffffffffff168152602001908152602001600020600101549050919050565b6006816005811061029257600080fd5b016000915090505481565b6102a5610a57565b73ffffffffffffffffffffffffffffffffffffffff166102c361074c565b73ffffffffffffffffffffffffffffffffffffffff1614610319576040517f08c379a000000000000000000000000000000000000000000000000000000000815260040161031090610d38565b60405180910390fd5b6103236000610a5f565b565b600080600b60003373ffffffffffffffffffffffffffffffffffffffff1673ffffffffffffffffffffffffffffffffffffffff16815260200190815260200160002060405180604001604052908160008201548152602001600182015481525050905060008160000151905060008260200151905060008086856000018181516103af9190610dad565b91508181525050600c60009054906101000a900473ffffffffffffffffffffffffffffffffffffffff1673ffffffffffffffffffffffffffffffffffffffff166323b872dd33308a6040518463ffffffff1660e01b815260040161041593929190610cc6565b602060405180830381600087803b15801561042f57600080fd5b505af1158015610443573d6000803e3d6000fd5b505050506040513d601f19601f820116820180604052508101906104679190610bde565b50600660046005811061047d5761047c610ef7565b5b0154878561048b9190610dad565b106105395784600b60003373ffffffffffffffffffffffffffffffffffffffff1673ffffffffffffffffffffffffffffffffffffffff1681526020019081526020016000206000820151816000015560208201518160010155905050863373ffffffffffffffffffffffffffffffffffffffff167f6031d3fff14bb27994e45ecc5b6e3817e2381a5febafa352cad91bbcdbc0271160405160405180910390a3600195505050505050610747565b6006836005811061054d5761054c610ef7565b5b01549150838261055d9190610e03565b9050808711156106985780876105739190610e03565b96505b600087146106935760006001808561058e9190610dad565b6005811061059f5761059e610ef7565b5b01549050808811156105cd5780886105b79190610e03565b97506001846105c69190610dad565b935061068d565b6001846105da9190610dad565b86602001818152505085600b60003373ffffffffffffffffffffffffffffffffffffffff1673ffffffffffffffffffffffffffffffffffffffff1681526020019081526020016000206000820151816000015560208201518160010155905050873373ffffffffffffffffffffffffffffffffffffffff167f6031d3fff14bb27994e45ecc5b6e3817e2381a5febafa352cad91bbcdbc0271160405160405180910390a360019650505050505050610747565b50610576565b610741565b84600b60003373ffffffffffffffffffffffffffffffffffffffff1673ffffffffffffffffffffffffffffffffffffffff1681526020019081526020016000206000820151816000015560208201518160010155905050863373ffffffffffffffffffffffffffffffffffffffff167f6031d3fff14bb27994e45ecc5b6e3817e2381a5febafa352cad91bbcdbc0271160405160405180910390a3600195505050505050610747565b50505050505b919050565b60008060009054906101000a900473ffffffffffffffffffffffffffffffffffffffff16905090565b6001816005811061078557600080fd5b016000915090505481565b610798610a57565b73ffffffffffffffffffffffffffffffffffffffff166107b661074c565b73ffffffffffffffffffffffffffffffffffffffff161461080c576040517f08c379a000000000000000000000000000000000000000000000000000000000815260040161080390610d38565b60405180910390fd5b806000600581106108205761081f610ef7565b5b6020020135600160006005811061083a57610839610ef7565b5b01819055508060006005811061085357610852610ef7565b5b6020020135600660006005811061086d5761086c610ef7565b5b01600082825461087d9190610dad565b925050819055506000600190505b6005811015610935578181600581106108a7576108a6610ef7565b5b6020020135600182600581106108c0576108bf610ef7565b5b01819055508181600581106108d8576108d7610ef7565b5b602002013560066001836108ec9190610e03565b600581106108fd576108fc610ef7565b5b01546109099190610dad565b6006826005811061091d5761091c610ef7565b5b0181905550808061092d90610e7f565b91505061088b565b5050565b600c60009054906101000a900473ffffffffffffffffffffffffffffffffffffffff1681565b610967610a57565b73ffffffffffffffffffffffffffffffffffffffff1661098561074c565b73ffffffffffffffffffffffffffffffffffffffff16146109db576040517f08c379a00000000000000000000000000000000000000000000000000000000081526004016109d290610d38565b60405180910390fd5b600073ffffffffffffffffffffffffffffffffffffffff168173ffffffffffffffffffffffffffffffffffffffff161415610a4b576040517f08c379a0000000000000000000000000000000000000000000000000000000008152600401610a4290610d18565b60405180910390fd5b610a5481610a5f565b50565b600033905090565b60008060009054906101000a900473ffffffffffffffffffffffffffffffffffffffff169050816000806101000a81548173ffffffffffffffffffffffffffffffffffffffff021916908373ffffffffffffffffffffffffffffffffffffffff1602179055508173ffffffffffffffffffffffffffffffffffffffff168173ffffffffffffffffffffffffffffffffffffffff167f8be0079c531659141344cd1fd0a4f28419497f9722a3daafe3b4186f6b6457e060405160405180910390a35050565b600081359050610b3281610fa8565b92915050565b600081905082602060050282011115610b5457610b53610f26565b5b92915050565b600081519050610b6981610fbf565b92915050565b600081359050610b7e81610fd6565b92915050565b600060208284031215610b9a57610b99610f2b565b5b6000610ba884828501610b23565b91505092915050565b600060a08284031215610bc757610bc6610f2b565b5b6000610bd584828501610b38565b91505092915050565b600060208284031215610bf457610bf3610f2b565b5b6000610c0284828501610b5a565b91505092915050565b600060208284031215610c2157610c20610f2b565b5b6000610c2f84828501610b6f565b91505092915050565b610c4181610e37565b82525050565b610c5081610e49565b82525050565b6000610c63602683610d9c565b9150610c6e82610f30565b604082019050919050565b6000610c86602083610d9c565b9150610c9182610f7f565b602082019050919050565b610ca581610e75565b82525050565b6000602082019050610cc06000830184610c38565b92915050565b6000606082019050610cdb6000830186610c38565b610ce86020830185610c38565b610cf56040830184610c9c565b949350505050565b6000602082019050610d126000830184610c47565b92915050565b60006020820190508181036000830152610d3181610c56565b9050919050565b60006020820190508181036000830152610d5181610c79565b9050919050565b6000602082019050610d6d6000830184610c9c565b92915050565b6000604082019050610d886000830185610c9c565b610d956020830184610c9c565b9392505050565b600082825260208201905092915050565b6000610db882610e75565b9150610dc383610e75565b9250827fffffffffffffffffffffffffffffffffffffffffffffffffffffffffffffffff03821115610df857610df7610ec8565b5b828201905092915050565b6000610e0e82610e75565b9150610e1983610e75565b925082821015610e2c57610e2b610ec8565b5b828203905092915050565b6000610e4282610e55565b9050919050565b60008115159050919050565b600073ffffffffffffffffffffffffffffffffffffffff82169050919050565b6000819050919050565b6000610e8a82610e75565b91507fffffffffffffffffffffffffffffffffffffffffffffffffffffffffffffffff821415610ebd57610ebc610ec8565b5b600182019050919050565b7f4e487b7100000000000000000000000000000000000000000000000000000000600052601160045260246000fd5b7f4e487b7100000000000000000000000000000000000000000000000000000000600052603260045260246000fd5b600080fd5b600080fd5b7f4f776e61626c653a206e6577206f776e657220697320746865207a65726f206160008201527f6464726573730000000000000000000000000000000000000000000000000000602082015250565b7f4f776e61626c653a2063616c6c6572206973206e6f7420746865206f776e6572600082015250565b610fb181610e37565b8114610fbc57600080fd5b50565b610fc881610e49565b8114610fd357600080fd5b50565b610fdf81610e75565b8114610fea57600080fd5b5056fea2646970667358221220d4a1ebdb80ebbdf0c4aafe564a2273debe3b2516a5c1bb9782fdaae6e816fc2564736f6c63430008070033",
  "immutableReferences": {},
  "source": "// SPDX-License-Identifier: MIT\r\npragma solidity ^0.8.7;\r\nimport \"./Ownable.sol\";\r\n\r\ninterface IERC20 {\r\n    function transferFrom(address from,address to,uint256 amount) external returns (bool);\r\n}\r\n\r\ncontract deposit is Ownable{\r\n    uint[5] public slab;\r\n    uint[5] public slabTotal;\r\n    struct userDeposit{\r\n        uint balance;\r\n        uint level;\r\n    }\r\n    mapping(address => userDeposit) public depositAmount;\r\n    address public ERC20;\r\n    event depositBYuser(address indexed depositor, uint indexed _amount);\r\n    constructor(address _erc20){\r\n        ERC20 = _erc20;\r\n    }\r\n\r\n    function setLevel(uint[5] calldata _amount) public onlyOwner{\r\n        slab[0] = _amount[0];\r\n        slabTotal[0] += _amount[0];\r\n        for(uint i=1;i<5;i++){\r\n            slab[i] = _amount[i];\r\n            slabTotal[i] =slabTotal[i-1] + _amount[i];\r\n        }\r\n    }\r\n//slab[0] = 500; slab[1] = 400; slab[2] = 300 ....\r\n//slabTotal[0] = 500 ; slabTotal[1] = 900\r\n    function depositByUser(uint _amount) public returns(bool){\r\n        userDeposit memory user = depositAmount[msg.sender];\r\n        uint bal = user.balance;\r\n        uint userSlab = user.level;\r\n        uint total;\r\n        uint space;\r\n        user.balance += _amount;\r\n        IERC20(ERC20).transferFrom(msg.sender,address(this),_amount);\r\n        if(bal + _amount >= slabTotal[4]){            \r\n            depositAmount[msg.sender] = user;\r\n            emit depositBYuser(msg.sender,_amount);\r\n            return true;\r\n        }\r\n        else{        \r\n            total = slabTotal[userSlab];\r\n            space = total - bal;\r\n            if(_amount > space){\r\n                _amount -= space;\r\n                while(_amount != 0){\r\n                    uint y = slab[userSlab+1];\r\n                    if(_amount > y){\r\n                        _amount = _amount - y;\r\n                        userSlab +=1;\r\n                    }\r\n                    else{\r\n                        user.level = userSlab+1;\r\n                        depositAmount[msg.sender] = user;\r\n                        emit depositBYuser(msg.sender,_amount);\r\n                        return true;\r\n                    }\r\n                }\r\n            }\r\n            else{\r\n                depositAmount[msg.sender] = user;\r\n                emit depositBYuser(msg.sender,_amount);\r\n                return true;\r\n            }\r\n        }\r\n    }\r\n    \r\n    function userDepositLevel(address _acc) public view returns(uint Level){\r\n        return depositAmount[_acc].level;\r\n    }\r\n\r\n}",
  "sourcePath": "C:\\Users\\RAJDEEP\\Desktop\\JOB\\Freelance\\Intershala Assignment\\Yebelo\\contracts\\depositBySlab.sol",
  "compiler": {
    "name": "solc",
    "version": "0.8.7+commit.e28d00a7.Emscripten.clang"
  },
  "schemaVersion": "3.4.3",
  "updatedAt": "2022-12-13T05:56:13.222Z",
  "networkType": "ethereum",
  "devdoc": {
    "kind": "dev",
    "methods": {
      "owner()": {
        "details": "Returns the address of the current owner."
      },
      "renounceOwnership()": {
        "details": "Leaves the contract without owner. It will not be possible to call `onlyOwner` functions anymore. Can only be called by the current owner. NOTE: Renouncing ownership will leave the contract without an owner, thereby removing any functionality that is only available to the owner."
      },
      "transferOwnership(address)": {
        "details": "Transfers ownership of the contract to a new account (`newOwner`). Can only be called by the current owner."
      }
    },
    "version": 1
  },
  "userdoc": {
    "kind": "user",
    "methods": {},
    "version": 1
  }
}