{
  "contractName": "yebeloCoin",
  "abi": [
    {
      "inputs": [],
      "stateMutability": "nonpayable",
      "type": "constructor"
    },
    {
      "anonymous": false,
      "inputs": [
        {
          "indexed": true,
          "internalType": "address",
          "name": "owner",
          "type": "address"
        },
        {
          "indexed": true,
          "internalType": "address",
          "name": "spender",
          "type": "address"
        },
        {
          "indexed": false,
          "internalType": "uint256",
          "name": "value",
          "type": "uint256"
        }
      ],
      "name": "Approval",
      "type": "event"
    },
    {
      "anonymous": false,
      "inputs": [
        {
          "indexed": true,
          "internalType": "address",
          "name": "previousOwner",
          "type": "address"
        },
        {
          "indexed": true,
          "internalType": "address",
          "name": "newOwner",
          "type": "address"
        }
      ],
      "name": "OwnershipTransferred",
      "type": "event"
    },
    {
      "anonymous": false,
      "inputs": [
        {
          "indexed": false,
          "internalType": "address",
          "name": "account",
          "type": "address"
        }
      ],
      "name": "Paused",
      "type": "event"
    },
    {
      "anonymous": false,
      "inputs": [
        {
          "indexed": true,
          "internalType": "address",
          "name": "from",
          "type": "address"
        },
        {
          "indexed": true,
          "internalType": "address",
          "name": "to",
          "type": "address"
        },
        {
          "indexed": false,
          "internalType": "uint256",
          "name": "value",
          "type": "uint256"
        }
      ],
      "name": "Transfer",
      "type": "event"
    },
    {
      "anonymous": false,
      "inputs": [
        {
          "indexed": false,
          "internalType": "address",
          "name": "account",
          "type": "address"
        }
      ],
      "name": "Unpaused",
      "type": "event"
    },
    {
      "inputs": [
        {
          "internalType": "address",
          "name": "owner",
          "type": "address"
        },
        {
          "internalType": "address",
          "name": "spender",
          "type": "address"
        }
      ],
      "name": "allowance",
      "outputs": [
        {
          "internalType": "uint256",
          "name": "",
          "type": "uint256"
        }
      ],
      "stateMutability": "view",
      "type": "function"
    },
    {
      "inputs": [
        {
          "internalType": "address",
          "name": "spender",
          "type": "address"
        },
        {
          "internalType": "uint256",
          "name": "amount",
          "type": "uint256"
        }
      ],
      "name": "approve",
      "outputs": [
        {
          "internalType": "bool",
          "name": "",
          "type": "bool"
        }
      ],
      "stateMutability": "nonpayable",
      "type": "function"
    },
    {
      "inputs": [
        {
          "internalType": "address",
          "name": "account",
          "type": "address"
        }
      ],
      "name": "balanceOf",
      "outputs": [
        {
          "internalType": "uint256",
          "name": "",
          "type": "uint256"
        }
      ],
      "stateMutability": "view",
      "type": "function"
    },
    {
      "inputs": [],
      "name": "decimals",
      "outputs": [
        {
          "internalType": "uint8",
          "name": "",
          "type": "uint8"
        }
      ],
      "stateMutability": "view",
      "type": "function"
    },
    {
      "inputs": [
        {
          "internalType": "address",
          "name": "spender",
          "type": "address"
        },
        {
          "internalType": "uint256",
          "name": "subtractedValue",
          "type": "uint256"
        }
      ],
      "name": "decreaseAllowance",
      "outputs": [
        {
          "internalType": "bool",
          "name": "",
          "type": "bool"
        }
      ],
      "stateMutability": "nonpayable",
      "type": "function"
    },
    {
      "inputs": [
        {
          "internalType": "address",
          "name": "spender",
          "type": "address"
        },
        {
          "internalType": "uint256",
          "name": "addedValue",
          "type": "uint256"
        }
      ],
      "name": "increaseAllowance",
      "outputs": [
        {
          "internalType": "bool",
          "name": "",
          "type": "bool"
        }
      ],
      "stateMutability": "nonpayable",
      "type": "function"
    },
    {
      "inputs": [],
      "name": "name",
      "outputs": [
        {
          "internalType": "string",
          "name": "",
          "type": "string"
        }
      ],
      "stateMutability": "view",
      "type": "function"
    },
    {
      "inputs": [],
      "name": "owner",
      "outputs": [
        {
          "internalType": "address",
          "name": "",
          "type": "address"
        }
      ],
      "stateMutability": "view",
      "type": "function"
    },
    {
      "inputs": [],
      "name": "paused",
      "outputs": [
        {
          "internalType": "bool",
          "name": "",
          "type": "bool"
        }
      ],
      "stateMutability": "view",
      "type": "function"
    },
    {
      "inputs": [],
      "name": "renounceOwnership",
      "outputs": [],
      "stateMutability": "nonpayable",
      "type": "function"
    },
    {
      "inputs": [],
      "name": "symbol",
      "outputs": [
        {
          "internalType": "string",
          "name": "",
          "type": "string"
        }
      ],
      "stateMutability": "view",
      "type": "function"
    },
    {
      "inputs": [],
      "name": "totalSupply",
      "outputs": [
        {
          "internalType": "uint256",
          "name": "",
          "type": "uint256"
        }
      ],
      "stateMutability": "view",
      "type": "function"
    },
    {
      "inputs": [
        {
          "internalType": "address",
          "name": "to",
          "type": "address"
        },
        {
          "internalType": "uint256",
          "name": "amount",
          "type": "uint256"
        }
      ],
      "name": "transfer",
      "outputs": [
        {
          "internalType": "bool",
          "name": "",
          "type": "bool"
        }
      ],
      "stateMutability": "nonpayable",
      "type": "function"
    },
    {
      "inputs": [
        {
          "internalType": "address",
          "name": "from",
          "type": "address"
        },
        {
          "internalType": "address",
          "name": "to",
          "type": "address"
        },
        {
          "internalType": "uint256",
          "name": "amount",
          "type": "uint256"
        }
      ],
      "name": "transferFrom",
      "outputs": [
        {
          "internalType": "bool",
          "name": "",
          "type": "bool"
        }
      ],
      "stateMutability": "nonpayable",
      "type": "function"
    },
    {
      "inputs": [
        {
          "internalType": "address",
          "name": "newOwner",
          "type": "address"
        }
      ],
      "name": "transferOwnership",
      "outputs": [],
      "stateMutability": "nonpayable",
      "type": "function"
    },
    {
      "inputs": [],
      "name": "pause",
      "outputs": [],
      "stateMutability": "nonpayable",
      "type": "function"
    },
    {
      "inputs": [],
      "name": "unpause",
      "outputs": [],
      "stateMutability": "nonpayable",
      "type": "function"
    },
    {
      "inputs": [
        {
          "internalType": "address",
          "name": "to",
          "type": "address"
        },
        {
          "internalType": "uint256",
          "name": "amount",
          "type": "uint256"
        }
      ],
      "name": "mint",
      "outputs": [],
      "stateMutability": "nonpayable",
      "type": "function"
    },
    {
      "inputs": [
        {
          "internalType": "address",
          "name": "_from",
          "type": "address"
        },
        {
          "internalType": "uint256",
          "name": "amount",
          "type": "uint256"
        }
      ],
      "name": "burn",
      "outputs": [],
      "stateMutability": "nonpayable",
      "type": "function"
    }
  ],
  "bytecode": "0x60806040523480156200001157600080fd5b506040518060400160405280600a81526020017f796562656c6f436f696e000000000000000000000000000000000000000000008152506040518060400160405280600681526020017f796562656c6f000000000000000000000000000000000000000000000000000081525081600390805190602001906200009692919062000414565b508060049080519060200190620000af92919062000414565b5050506000600560006101000a81548160ff021916908315150217905550620000ed620000e16200013360201b60201c565b6200013b60201b60201c565b6200012d33620001026200020160201b60201c565b600a6200011091906200064d565b6305f5e1006200012191906200078a565b6200020a60201b60201c565b620008f5565b600033905090565b6000600560019054906101000a900473ffffffffffffffffffffffffffffffffffffffff16905081600560016101000a81548173ffffffffffffffffffffffffffffffffffffffff021916908373ffffffffffffffffffffffffffffffffffffffff1602179055508173ffffffffffffffffffffffffffffffffffffffff168173ffffffffffffffffffffffffffffffffffffffff167f8be0079c531659141344cd1fd0a4f28419497f9722a3daafe3b4186f6b6457e060405160405180910390a35050565b60006006905090565b600073ffffffffffffffffffffffffffffffffffffffff168273ffffffffffffffffffffffffffffffffffffffff1614156200027d576040517f08c379a0000000000000000000000000000000000000000000000000000000008152600401620002749062000545565b60405180910390fd5b62000291600083836200038360201b60201c565b8060026000828254620002a5919062000595565b92505081905550806000808473ffffffffffffffffffffffffffffffffffffffff1673ffffffffffffffffffffffffffffffffffffffff1681526020019081526020016000206000828254620002fc919062000595565b925050819055508173ffffffffffffffffffffffffffffffffffffffff16600073ffffffffffffffffffffffffffffffffffffffff167fddf252ad1be2c89b69c2b068fc378daa952ba7f163c4a11628f55a4df523b3ef8360405162000363919062000567565b60405180910390a36200037f60008383620003f360201b60201c565b5050565b62000393620003f860201b60201c565b15620003d6576040517f08c379a0000000000000000000000000000000000000000000000000000000008152600401620003cd9062000523565b60405180910390fd5b620003ee8383836200040f60201b62000b8c1760201c565b505050565b505050565b6000600560009054906101000a900460ff16905090565b505050565b828054620004229062000802565b90600052602060002090601f01602090048101928262000446576000855562000492565b82601f106200046157805160ff191683800117855562000492565b8280016001018555821562000492579182015b828111156200049157825182559160200191906001019062000474565b5b509050620004a19190620004a5565b5090565b5b80821115620004c0576000816000905550600101620004a6565b5090565b6000620004d360108362000584565b9150620004e082620008a3565b602082019050919050565b6000620004fa601f8362000584565b91506200050782620008cc565b602082019050919050565b6200051d81620007eb565b82525050565b600060208201905081810360008301526200053e81620004c4565b9050919050565b600060208201905081810360008301526200056081620004eb565b9050919050565b60006020820190506200057e600083018462000512565b92915050565b600082825260208201905092915050565b6000620005a282620007eb565b9150620005af83620007eb565b9250827fffffffffffffffffffffffffffffffffffffffffffffffffffffffffffffffff03821115620005e757620005e662000838565b5b828201905092915050565b6000808291508390505b600185111562000644578086048111156200061c576200061b62000838565b5b60018516156200062c5780820291505b80810290506200063c8562000896565b9450620005fc565b94509492505050565b60006200065a82620007eb565b91506200066783620007f5565b9250620006967fffffffffffffffffffffffffffffffffffffffffffffffffffffffffffffffff84846200069e565b905092915050565b600082620006b0576001905062000783565b81620006c0576000905062000783565b8160018114620006d95760028114620006e4576200071a565b600191505062000783565b60ff841115620006f957620006f862000838565b5b8360020a91508482111562000713576200071262000838565b5b5062000783565b5060208310610133831016604e8410600b8410161715620007545782820a9050838111156200074e576200074d62000838565b5b62000783565b620007638484846001620005f2565b925090508184048111156200077d576200077c62000838565b5b81810290505b9392505050565b60006200079782620007eb565b9150620007a483620007eb565b9250817fffffffffffffffffffffffffffffffffffffffffffffffffffffffffffffffff0483118215151615620007e057620007df62000838565b5b828202905092915050565b6000819050919050565b600060ff82169050919050565b600060028204905060018216806200081b57607f821691505b6020821081141562000832576200083162000867565b5b50919050565b7f4e487b7100000000000000000000000000000000000000000000000000000000600052601160045260246000fd5b7f4e487b7100000000000000000000000000000000000000000000000000000000600052602260045260246000fd5b60008160011c9050919050565b7f5061757361626c653a2070617573656400000000000000000000000000000000600082015250565b7f45524332303a206d696e7420746f20746865207a65726f206164647265737300600082015250565b6121b380620009056000396000f3fe608060405234801561001057600080fd5b50600436106101215760003560e01c806370a08231116100ad5780639dc29fac116100715780639dc29fac146102d4578063a457c2d7146102f0578063a9059cbb14610320578063dd62ed3e14610350578063f2fde38b1461038057610121565b806370a0823114610254578063715018a6146102845780638456cb591461028e5780638da5cb5b1461029857806395d89b41146102b657610121565b8063313ce567116100f4578063313ce567146101c257806339509351146101e05780633f4ba83a1461021057806340c10f191461021a5780635c975abb1461023657610121565b806306fdde0314610126578063095ea7b31461014457806318160ddd1461017457806323b872dd14610192575b600080fd5b61012e61039c565b60405161013b91906119cf565b60405180910390f35b61015e600480360381019061015991906116fa565b61042e565b60405161016b91906119b4565b60405180910390f35b61017c610451565b6040516101899190611bb1565b60405180910390f35b6101ac60048036038101906101a791906116a7565b61045b565b6040516101b991906119b4565b60405180910390f35b6101ca61048a565b6040516101d79190611bcc565b60405180910390f35b6101fa60048036038101906101f591906116fa565b610493565b60405161020791906119b4565b60405180910390f35b61021861053d565b005b610234600480360381019061022f91906116fa565b6105c3565b005b61023e61064d565b60405161024b91906119b4565b60405180910390f35b61026e6004803603810190610269919061163a565b610664565b60405161027b9190611bb1565b60405180910390f35b61028c6106ac565b005b610296610734565b005b6102a06107ba565b6040516102ad9190611999565b60405180910390f35b6102be6107e4565b6040516102cb91906119cf565b60405180910390f35b6102ee60048036038101906102e991906116fa565b610876565b005b61030a600480360381019061030591906116fa565b610900565b60405161031791906119b4565b60405180910390f35b61033a600480360381019061033591906116fa565b6109ea565b60405161034791906119b4565b60405180910390f35b61036a60048036038101906103659190611667565b610a0d565b6040516103779190611bb1565b60405180910390f35b61039a6004803603810190610395919061163a565b610a94565b005b6060600380546103ab90611d15565b80601f01602080910402602001604051908101604052809291908181526020018280546103d790611d15565b80156104245780601f106103f957610100808354040283529160200191610424565b820191906000526020600020905b81548152906001019060200180831161040757829003601f168201915b5050505050905090565b600080610439610b91565b9050610446818585610b99565b600191505092915050565b6000600254905090565b600080610466610b91565b9050610473858285610d64565b61047e858585610df0565b60019150509392505050565b60006006905090565b60008061049e610b91565b9050610532818585600160008673ffffffffffffffffffffffffffffffffffffffff1673ffffffffffffffffffffffffffffffffffffffff16815260200190815260200160002060008973ffffffffffffffffffffffffffffffffffffffff1673ffffffffffffffffffffffffffffffffffffffff1681526020019081526020016000205461052d9190611c03565b610b99565b600191505092915050565b610545610b91565b73ffffffffffffffffffffffffffffffffffffffff166105636107ba565b73ffffffffffffffffffffffffffffffffffffffff16146105b9576040517f08c379a00000000000000000000000000000000000000000000000000000000081526004016105b090611af1565b60405180910390fd5b6105c1611071565b565b6105cb610b91565b73ffffffffffffffffffffffffffffffffffffffff166105e96107ba565b73ffffffffffffffffffffffffffffffffffffffff161461063f576040517f08c379a000000000000000000000000000000000000000000000000000000000815260040161063690611af1565b60405180910390fd5b6106498282611113565b5050565b6000600560009054906101000a900460ff16905090565b60008060008373ffffffffffffffffffffffffffffffffffffffff1673ffffffffffffffffffffffffffffffffffffffff168152602001908152602001600020549050919050565b6106b4610b91565b73ffffffffffffffffffffffffffffffffffffffff166106d26107ba565b73ffffffffffffffffffffffffffffffffffffffff1614610728576040517f08c379a000000000000000000000000000000000000000000000000000000000815260040161071f90611af1565b60405180910390fd5b6107326000611273565b565b61073c610b91565b73ffffffffffffffffffffffffffffffffffffffff1661075a6107ba565b73ffffffffffffffffffffffffffffffffffffffff16146107b0576040517f08c379a00000000000000000000000000000000000000000000000000000000081526004016107a790611af1565b60405180910390fd5b6107b8611339565b565b6000600560019054906101000a900473ffffffffffffffffffffffffffffffffffffffff16905090565b6060600480546107f390611d15565b80601f016020809104026020016040519081016040528092919081815260200182805461081f90611d15565b801561086c5780601f106108415761010080835404028352916020019161086c565b820191906000526020600020905b81548152906001019060200180831161084f57829003601f168201915b5050505050905090565b61087e610b91565b73ffffffffffffffffffffffffffffffffffffffff1661089c6107ba565b73ffffffffffffffffffffffffffffffffffffffff16146108f2576040517f08c379a00000000000000000000000000000000000000000000000000000000081526004016108e990611af1565b60405180910390fd5b6108fc82826113dc565b5050565b60008061090b610b91565b90506000600160008373ffffffffffffffffffffffffffffffffffffffff1673ffffffffffffffffffffffffffffffffffffffff16815260200190815260200160002060008673ffffffffffffffffffffffffffffffffffffffff1673ffffffffffffffffffffffffffffffffffffffff168152602001908152602001600020549050838110156109d1576040517f08c379a00000000000000000000000000000000000000000000000000000000081526004016109c890611b71565b60405180910390fd5b6109de8286868403610b99565b60019250505092915050565b6000806109f5610b91565b9050610a02818585610df0565b600191505092915050565b6000600160008473ffffffffffffffffffffffffffffffffffffffff1673ffffffffffffffffffffffffffffffffffffffff16815260200190815260200160002060008373ffffffffffffffffffffffffffffffffffffffff1673ffffffffffffffffffffffffffffffffffffffff16815260200190815260200160002054905092915050565b610a9c610b91565b73ffffffffffffffffffffffffffffffffffffffff16610aba6107ba565b73ffffffffffffffffffffffffffffffffffffffff1614610b10576040517f08c379a0000000000000000000000000000000000000000000000000000000008152600401610b0790611af1565b60405180910390fd5b600073ffffffffffffffffffffffffffffffffffffffff168173ffffffffffffffffffffffffffffffffffffffff161415610b80576040517f08c379a0000000000000000000000000000000000000000000000000000000008152600401610b7790611a51565b60405180910390fd5b610b8981611273565b50565b505050565b600033905090565b600073ffffffffffffffffffffffffffffffffffffffff168373ffffffffffffffffffffffffffffffffffffffff161415610c09576040517f08c379a0000000000000000000000000000000000000000000000000000000008152600401610c0090611b51565b60405180910390fd5b600073ffffffffffffffffffffffffffffffffffffffff168273ffffffffffffffffffffffffffffffffffffffff161415610c79576040517f08c379a0000000000000000000000000000000000000000000000000000000008152600401610c7090611a71565b60405180910390fd5b80600160008573ffffffffffffffffffffffffffffffffffffffff1673ffffffffffffffffffffffffffffffffffffffff16815260200190815260200160002060008473ffffffffffffffffffffffffffffffffffffffff1673ffffffffffffffffffffffffffffffffffffffff168152602001908152602001600020819055508173ffffffffffffffffffffffffffffffffffffffff168373ffffffffffffffffffffffffffffffffffffffff167f8c5be1e5ebec7d5bd14f71427d1e84f3dd0314c0f7b2291e5b200ac8c7c3b92583604051610d579190611bb1565b60405180910390a3505050565b6000610d708484610a0d565b90507fffffffffffffffffffffffffffffffffffffffffffffffffffffffffffffffff8114610dea5781811015610ddc576040517f08c379a0000000000000000000000000000000000000000000000000000000008152600401610dd390611a91565b60405180910390fd5b610de98484848403610b99565b5b50505050565b600073ffffffffffffffffffffffffffffffffffffffff168373ffffffffffffffffffffffffffffffffffffffff161415610e60576040517f08c379a0000000000000000000000000000000000000000000000000000000008152600401610e5790611b31565b60405180910390fd5b600073ffffffffffffffffffffffffffffffffffffffff168273ffffffffffffffffffffffffffffffffffffffff161415610ed0576040517f08c379a0000000000000000000000000000000000000000000000000000000008152600401610ec7906119f1565b60405180910390fd5b610edb8383836115b3565b60008060008573ffffffffffffffffffffffffffffffffffffffff1673ffffffffffffffffffffffffffffffffffffffff16815260200190815260200160002054905081811015610f61576040517f08c379a0000000000000000000000000000000000000000000000000000000008152600401610f5890611ab1565b60405180910390fd5b8181036000808673ffffffffffffffffffffffffffffffffffffffff1673ffffffffffffffffffffffffffffffffffffffff16815260200190815260200160002081905550816000808573ffffffffffffffffffffffffffffffffffffffff1673ffffffffffffffffffffffffffffffffffffffff1681526020019081526020016000206000828254610ff49190611c03565b925050819055508273ffffffffffffffffffffffffffffffffffffffff168473ffffffffffffffffffffffffffffffffffffffff167fddf252ad1be2c89b69c2b068fc378daa952ba7f163c4a11628f55a4df523b3ef846040516110589190611bb1565b60405180910390a361106b84848461160b565b50505050565b61107961064d565b6110b8576040517f08c379a00000000000000000000000000000000000000000000000000000000081526004016110af90611a11565b60405180910390fd5b6000600560006101000a81548160ff0219169083151502179055507f5db9ee0a495bf2e6ff9c91a7834c1ba4fdd244a5e8aa4e537bd38aeae4b073aa6110fc610b91565b6040516111099190611999565b60405180910390a1565b600073ffffffffffffffffffffffffffffffffffffffff168273ffffffffffffffffffffffffffffffffffffffff161415611183576040517f08c379a000000000000000000000000000000000000000000000000000000000815260040161117a90611b91565b60405180910390fd5b61118f600083836115b3565b80600260008282546111a19190611c03565b92505081905550806000808473ffffffffffffffffffffffffffffffffffffffff1673ffffffffffffffffffffffffffffffffffffffff16815260200190815260200160002060008282546111f69190611c03565b925050819055508173ffffffffffffffffffffffffffffffffffffffff16600073ffffffffffffffffffffffffffffffffffffffff167fddf252ad1be2c89b69c2b068fc378daa952ba7f163c4a11628f55a4df523b3ef8360405161125b9190611bb1565b60405180910390a361126f6000838361160b565b5050565b6000600560019054906101000a900473ffffffffffffffffffffffffffffffffffffffff16905081600560016101000a81548173ffffffffffffffffffffffffffffffffffffffff021916908373ffffffffffffffffffffffffffffffffffffffff1602179055508173ffffffffffffffffffffffffffffffffffffffff168173ffffffffffffffffffffffffffffffffffffffff167f8be0079c531659141344cd1fd0a4f28419497f9722a3daafe3b4186f6b6457e060405160405180910390a35050565b61134161064d565b15611381576040517f08c379a000000000000000000000000000000000000000000000000000000000815260040161137890611ad1565b60405180910390fd5b6001600560006101000a81548160ff0219169083151502179055507f62e78cea01bee320cd4e420270b5ea74000d11b0c9f74754ebdbfc544b05a2586113c5610b91565b6040516113d29190611999565b60405180910390a1565b600073ffffffffffffffffffffffffffffffffffffffff168273ffffffffffffffffffffffffffffffffffffffff16141561144c576040517f08c379a000000000000000000000000000000000000000000000000000000000815260040161144390611b11565b60405180910390fd5b611458826000836115b3565b60008060008473ffffffffffffffffffffffffffffffffffffffff1673ffffffffffffffffffffffffffffffffffffffff168152602001908152602001600020549050818110156114de576040517f08c379a00000000000000000000000000000000000000000000000000000000081526004016114d590611a31565b60405180910390fd5b8181036000808573ffffffffffffffffffffffffffffffffffffffff1673ffffffffffffffffffffffffffffffffffffffff1681526020019081526020016000208190555081600260008282546115359190611c59565b92505081905550600073ffffffffffffffffffffffffffffffffffffffff168373ffffffffffffffffffffffffffffffffffffffff167fddf252ad1be2c89b69c2b068fc378daa952ba7f163c4a11628f55a4df523b3ef8460405161159a9190611bb1565b60405180910390a36115ae8360008461160b565b505050565b6115bb61064d565b156115fb576040517f08c379a00000000000000000000000000000000000000000000000000000000081526004016115f290611ad1565b60405180910390fd5b611606838383610b8c565b505050565b505050565b60008135905061161f8161214f565b92915050565b60008135905061163481612166565b92915050565b6000602082840312156116505761164f611da5565b5b600061165e84828501611610565b91505092915050565b6000806040838503121561167e5761167d611da5565b5b600061168c85828601611610565b925050602061169d85828601611610565b9150509250929050565b6000806000606084860312156116c0576116bf611da5565b5b60006116ce86828701611610565b93505060206116df86828701611610565b92505060406116f086828701611625565b9150509250925092565b6000806040838503121561171157611710611da5565b5b600061171f85828601611610565b925050602061173085828601611625565b9150509250929050565b61174381611c8d565b82525050565b61175281611c9f565b82525050565b600061176382611be7565b61176d8185611bf2565b935061177d818560208601611ce2565b61178681611daa565b840191505092915050565b600061179e602383611bf2565b91506117a982611dbb565b604082019050919050565b60006117c1601483611bf2565b91506117cc82611e0a565b602082019050919050565b60006117e4602283611bf2565b91506117ef82611e33565b604082019050919050565b6000611807602683611bf2565b915061181282611e82565b604082019050919050565b600061182a602283611bf2565b915061183582611ed1565b604082019050919050565b600061184d601d83611bf2565b915061185882611f20565b602082019050919050565b6000611870602683611bf2565b915061187b82611f49565b604082019050919050565b6000611893601083611bf2565b915061189e82611f98565b602082019050919050565b60006118b6602083611bf2565b91506118c182611fc1565b602082019050919050565b60006118d9602183611bf2565b91506118e482611fea565b604082019050919050565b60006118fc602583611bf2565b915061190782612039565b604082019050919050565b600061191f602483611bf2565b915061192a82612088565b604082019050919050565b6000611942602583611bf2565b915061194d826120d7565b604082019050919050565b6000611965601f83611bf2565b915061197082612126565b602082019050919050565b61198481611ccb565b82525050565b61199381611cd5565b82525050565b60006020820190506119ae600083018461173a565b92915050565b60006020820190506119c96000830184611749565b92915050565b600060208201905081810360008301526119e98184611758565b905092915050565b60006020820190508181036000830152611a0a81611791565b9050919050565b60006020820190508181036000830152611a2a816117b4565b9050919050565b60006020820190508181036000830152611a4a816117d7565b9050919050565b60006020820190508181036000830152611a6a816117fa565b9050919050565b60006020820190508181036000830152611a8a8161181d565b9050919050565b60006020820190508181036000830152611aaa81611840565b9050919050565b60006020820190508181036000830152611aca81611863565b9050919050565b60006020820190508181036000830152611aea81611886565b9050919050565b60006020820190508181036000830152611b0a816118a9565b9050919050565b60006020820190508181036000830152611b2a816118cc565b9050919050565b60006020820190508181036000830152611b4a816118ef565b9050919050565b60006020820190508181036000830152611b6a81611912565b9050919050565b60006020820190508181036000830152611b8a81611935565b9050919050565b60006020820190508181036000830152611baa81611958565b9050919050565b6000602082019050611bc6600083018461197b565b92915050565b6000602082019050611be1600083018461198a565b92915050565b600081519050919050565b600082825260208201905092915050565b6000611c0e82611ccb565b9150611c1983611ccb565b9250827fffffffffffffffffffffffffffffffffffffffffffffffffffffffffffffffff03821115611c4e57611c4d611d47565b5b828201905092915050565b6000611c6482611ccb565b9150611c6f83611ccb565b925082821015611c8257611c81611d47565b5b828203905092915050565b6000611c9882611cab565b9050919050565b60008115159050919050565b600073ffffffffffffffffffffffffffffffffffffffff82169050919050565b6000819050919050565b600060ff82169050919050565b60005b83811015611d00578082015181840152602081019050611ce5565b83811115611d0f576000848401525b50505050565b60006002820490506001821680611d2d57607f821691505b60208210811415611d4157611d40611d76565b5b50919050565b7f4e487b7100000000000000000000000000000000000000000000000000000000600052601160045260246000fd5b7f4e487b7100000000000000000000000000000000000000000000000000000000600052602260045260246000fd5b600080fd5b6000601f19601f8301169050919050565b7f45524332303a207472616e7366657220746f20746865207a65726f206164647260008201527f6573730000000000000000000000000000000000000000000000000000000000602082015250565b7f5061757361626c653a206e6f7420706175736564000000000000000000000000600082015250565b7f45524332303a206275726e20616d6f756e7420657863656564732062616c616e60008201527f6365000000000000000000000000000000000000000000000000000000000000602082015250565b7f4f776e61626c653a206e6577206f776e657220697320746865207a65726f206160008201527f6464726573730000000000000000000000000000000000000000000000000000602082015250565b7f45524332303a20617070726f766520746f20746865207a65726f20616464726560008201527f7373000000000000000000000000000000000000000000000000000000000000602082015250565b7f45524332303a20696e73756666696369656e7420616c6c6f77616e6365000000600082015250565b7f45524332303a207472616e7366657220616d6f756e742065786365656473206260008201527f616c616e63650000000000000000000000000000000000000000000000000000602082015250565b7f5061757361626c653a2070617573656400000000000000000000000000000000600082015250565b7f4f776e61626c653a2063616c6c6572206973206e6f7420746865206f776e6572600082015250565b7f45524332303a206275726e2066726f6d20746865207a65726f2061646472657360008201527f7300000000000000000000000000000000000000000000000000000000000000602082015250565b7f45524332303a207472616e736665722066726f6d20746865207a65726f20616460008201527f6472657373000000000000000000000000000000000000000000000000000000602082015250565b7f45524332303a20617070726f76652066726f6d20746865207a65726f2061646460008201527f7265737300000000000000000000000000000000000000000000000000000000602082015250565b7f45524332303a2064656372656173656420616c6c6f77616e63652062656c6f7760008201527f207a65726f000000000000000000000000000000000000000000000000000000602082015250565b7f45524332303a206d696e7420746f20746865207a65726f206164647265737300600082015250565b61215881611c8d565b811461216357600080fd5b50565b61216f81611ccb565b811461217a57600080fd5b5056fea2646970667358221220789a0ef276457d66e9c5bd7a48410a50380f0177d076ad9a239fdb615de1016e64736f6c63430008070033",
  "immutableReferences": {},
  "source": "// SPDX-License-Identifier: MIT\npragma solidity ^0.8.7;\n\nimport \"./ERC20.sol\";\nimport \"./Pausable.sol\";\nimport \"./Ownable.sol\";\n\ncontract yebeloCoin is ERC20, Pausable, Ownable {\n    constructor() ERC20(\"yebeloCoin\", \"yebelo\") {\n        _mint(msg.sender, 100000000 * 10 ** decimals());\n    }\n\n    function pause() public onlyOwner {\n        _pause();\n    }\n\n    function unpause() public onlyOwner {\n        _unpause();\n    }\n\n    function mint(address to, uint256 amount) public onlyOwner {\n        _mint(to, amount);\n    }\n\n    function burn(address _from, uint256 amount) public onlyOwner {\n        _burn(_from, amount);\n    }\n\n    function _beforeTokenTransfer(address from, address to, uint256 amount)\n        internal\n        whenNotPaused\n        override\n    {\n        super._beforeTokenTransfer(from, to, amount);\n    }\n}",
  "sourcePath": "C:\\Users\\RAJDEEP\\Desktop\\JOB\\Freelance\\Intershala Assignment\\Yebelo\\contracts\\yebeloERC20.sol",
  "compiler": {
    "name": "solc",
    "version": "0.8.7+commit.e28d00a7.Emscripten.clang"
  },
  "schemaVersion": "3.4.3",
  "updatedAt": "2022-12-13T05:54:43.872Z",
  "devdoc": {
    "kind": "dev",
    "methods": {
      "allowance(address,address)": {
        "details": "See {IERC20-allowance}."
      },
      "approve(address,uint256)": {
        "details": "See {IERC20-approve}. NOTE: If `amount` is the maximum `uint256`, the allowance is not updated on `transferFrom`. This is semantically equivalent to an infinite approval. Requirements: - `spender` cannot be the zero address."
      },
      "balanceOf(address)": {
        "details": "See {IERC20-balanceOf}."
      },
      "decimals()": {
        "details": "Returns the number of decimals used to get its user representation. For example, if `decimals` equals `2`, a balance of `505` tokens should be displayed to a user as `5.05` (`505 / 10 ** 2`). Tokens usually opt for a value of 18, imitating the relationship between Ether and Wei. This is the value {ERC20} uses, unless this function is overridden; NOTE: This information is only used for _display_ purposes: it in no way affects any of the arithmetic of the contract, including {IERC20-balanceOf} and {IERC20-transfer}."
      },
      "decreaseAllowance(address,uint256)": {
        "details": "Atomically decreases the allowance granted to `spender` by the caller. This is an alternative to {approve} that can be used as a mitigation for problems described in {IERC20-approve}. Emits an {Approval} event indicating the updated allowance. Requirements: - `spender` cannot be the zero address. - `spender` must have allowance for the caller of at least `subtractedValue`."
      },
      "increaseAllowance(address,uint256)": {
        "details": "Atomically increases the allowance granted to `spender` by the caller. This is an alternative to {approve} that can be used as a mitigation for problems described in {IERC20-approve}. Emits an {Approval} event indicating the updated allowance. Requirements: - `spender` cannot be the zero address."
      },
      "name()": {
        "details": "Returns the name of the token."
      },
      "owner()": {
        "details": "Returns the address of the current owner."
      },
      "paused()": {
        "details": "Returns true if the contract is paused, and false otherwise."
      },
      "renounceOwnership()": {
        "details": "Leaves the contract without owner. It will not be possible to call `onlyOwner` functions anymore. Can only be called by the current owner. NOTE: Renouncing ownership will leave the contract without an owner, thereby removing any functionality that is only available to the owner."
      },
      "symbol()": {
        "details": "Returns the symbol of the token, usually a shorter version of the name."
      },
      "totalSupply()": {
        "details": "See {IERC20-totalSupply}."
      },
      "transfer(address,uint256)": {
        "details": "See {IERC20-transfer}. Requirements: - `to` cannot be the zero address. - the caller must have a balance of at least `amount`."
      },
      "transferFrom(address,address,uint256)": {
        "details": "See {IERC20-transferFrom}. Emits an {Approval} event indicating the updated allowance. This is not required by the EIP. See the note at the beginning of {ERC20}. NOTE: Does not update the allowance if the current allowance is the maximum `uint256`. Requirements: - `from` and `to` cannot be the zero address. - `from` must have a balance of at least `amount`. - the caller must have allowance for ``from``'s tokens of at least `amount`."
      },
      "transferOwnership(address)": {
        "details": "Transfers ownership of the contract to a new account (`newOwner`). Can only be called by the current owner."
      }
    },
    "version": 1
  },
  "userdoc": {
    "kind": "user",
    "methods": {},
    "version": 1
  }
}